:100000000C9434000C9451000C9451000C94510049
:100010000C9451000C9451000C9451000C9451001C
:100020000C9451000C9451000C9451000C9451000C
:100030000C9451000C9451000C9451000C945100FC
:100040000C9451000C9451000C9451000C945100EC
:100050000C9451000C9451000C9451000C945100DC
:100060000C9451000C94510011241FBECFEFD8E026
:10007000DEBFCDBF11E0A0E0B1E0EAEEFFE002C0DC
:1000800005900D92AE30B107D9F721E0AEE0B1E0B6
:1000900001C01D92A635B207E1F70E9453000C94EF
:1000A000F3070C9400000E946B000E94C100FDCF7A
:1000B00083EF8093B00084BD82E08093B10085BD62
:1000C0001092B4001092B30018BC17BC8AB18866B5
:1000D0008AB9239A0895CF93DF93CDB7DEB72897D7
:1000E0000FB6F894DEBF0FBECDBF88E0E6E0F1E0CA
:1000F000DE01119601900D928A95E1F723E140ED22
:1001000057E068E0CE0101960E9496020E945800D6
:1001100028960FB6F894DEBF0FBECDBFDF91CF910A
:10012000089517BC1092B30097FF02C080E090E0E2
:100130009B0177FF02C020E030E040912001509108
:100140002101403551057CF4481759070CF4CA01C8
:10015000421753070CF49A014F5F5F4F50932101F0
:10016000409320010AC08135910514F080E590E0AC
:100170002135310514F020E530E088BD2093B4002E
:1001800008954F925F926F927F928F929F92AF925B
:10019000BF92CF92DF92EF92FF92CF93DF9300D086
:1001A00000D0CDB7DEB761E082E491E00E94850423
:1001B000E2E4F1E080819181883C910510F41182A4
:1001C0001082329621E0E235F207A1F7412C512C42
:1001D0003201E2E4F1E088EEC82E83E0D82EE12C73
:1001E000F12C812C912C5401819191919C0140E042
:1001F00050E029833A834B835C83A7019601698190
:100200007A818B819C810E941606640D751D861D66
:10021000971D29813A814B815C81280D391D4A1D2A
:100220005B1DA8EECA0EA3E0DA1EE11CF11CB8E2C9
:10023000CB16B3E2DB06E104F10429F02B013C010B
:1002400049015A01D1CF60931A0170931B01809329
:100250001C0190931D0120931601309317014093C8
:10026000180150931901211531054105510551F02F
:100270000E945C06209312013093130140931401F5
:1002800050931501E0901201F090130124E9E21A55
:1002900021E1F20AB701882777FD8095982F0E9407
:1002A000270523E333E343EA50E40E94B3054B01FF
:1002B0005C0180911E0190911F01B701681B790BB1
:1002C000882777FD8095982F0E9427052AE939E92C
:1002D00041E651E40E94B3059B01AC01C501B401A4
:1002E0000E9490040E94F404F0921F01E0921E010B
:1002F00020E530E0261B370BCB01805B9F4FB90117
:100300000F900F900F900F90DF91CF91FF90EF9093
:10031000DF90CF90BF90AF909F908F907F906F9025
:100320005F904F900C9491006F9364E06A95F1F7A1
:100330006F910197C9F70895FC0111821082138211
:100340001282158214821682683068F489E290E085
:10035000918380838BE290E0938382838AE290E0B2
:100360009583848311C06E30C0F483E290E0918362
:10037000808385E290E09383828384E290E095839A
:10038000848370E06850704081E090E002C0880F84
:10039000991F6A95E2F7868308956531B8F486E27D
:1003A00090E09183808388E290E09383828387E268
:1003B00090E09583848370E06E50704081E090E01F
:1003C00002C0880F991F6A95E2F786830895A7E017
:1003D000B0E0EDEEF1E00C9494068C01FC0111828A
:1003E0001082138212821582148217821682613162
:1003F00018F080E1808702C0FC016087F801208B43
:10040000CE010196642F0E949C018F81F8018187A3
:100410008B819C81938782878D819E81958784873C
:100420002796E4E00C94B006FC01A485B5851097EE
:1004300079F08C919185892B8C93A285B3859C91C1
:100440008185809589238C9388EC90E00E949401AB
:100450000895FC01A485B585109771F08C91918564
:10046000892B8C93A285B3858C919185892B8C9354
:1004700088EC90E00E9494010895A7E0B0E0E3E4E6
:10048000F2E00C9486067C011B01642F3901402F99
:1004900020E00E94E70197012F5B3F4FF901108296
:1004A000D701AE5BBF4F1C92C7018D5B9F4FFC0114
:1004B0001082F7017786668666242E010894411C17
:1004C000511C6C015D01490129C0062D10E0F101AC
:1004D000E00FF11FC20160810E949C012F81F70192
:1004E000E00FF11F218B89819A81F801EE0FFF1F28
:1004F000EE0DFF1D92A381A38332910511F4F40147
:1005000009C08632910511F4F50104C089329105C4
:1005100021F4F6018081822B80836394F70180852A
:10052000681698F22796E2E10C94A206A0E0B0E0EB
:10053000ECE9F2E00C948E067C01162F6A01022F82
:1005400084E490E00E94CC06A82EE5015E01B92E5D
:10055000E501209761F0C501B701412F96010E9486
:100560003D02B0921101A092100181E001C080E033
:10057000CDB7DEB7EAE00C94AA06A0E0B0E0E3EC69
:10058000F2E00C948B06EC015B01FC01EF5BFF4F8A
:100590009080FC01EE5BFF4F8080FC01ED5BFF4F24
:1005A000708080E009C0E82FF0E0EE0FFF1FEA0D39
:1005B000FB1D118210828F5F98858917A0F384B18B
:1005C00021E4E22EF12CEC0EFD1ED7019C91892B2B
:1005D00084B987B18E010E5B1F4FF8019081892B82
:1005E00087B98AB193E4C92ED12CCC0EDD1ED60179
:1005F0009C91892B8AB985B1F7019081892B85B9A6
:1006000088B1D8019C91892B88B98BB1F601908172
:10061000892B8BB98AE090E00E94940194B1D701B4
:100620008C918095892384B997B1F8018081809558
:10063000892387B99AB1D6018C91809589238AB98B
:1006400095B1F70180818095892385B998B1D8014A
:100650008C918095892388B99BB1F6018081809522
:1006600089238BB9C090B000E090B1008091B000B8
:1006700083608093B00082E08093B1000091B2006B
:1006800080E090E039C02091B200201B820F911DC4
:10069000020FF3B0F91409F04DC096B0981409F0A8
:1006A00049C029B1271509F045C024C0212F30E0E9
:1006B000A901440F551FF501E40FF51F60817181F9
:1006C0006115710599F44C0F5D1FDA0191964D91FA
:1006D0005C919297DA014C912C0F3D1FD9015196F4
:1006E0002C915197422311F4918380831F5F2885B9
:1006F0001217E0F2892C9F2C2E853F8582179307D5
:1007000010F2C092B000E092B10020E00FC0E22FE2
:10071000F0E0EE0FFF1FEA0DFB1D80819181009735
:1007200021F48E859F85918380832F5F888528178C
:1007300070F305C0F3B096B079B010E0D8CFCDB764
:10074000DEB7EDE00C94A706EF92FF920F931F9394
:10075000CF93DF93FC019B0100917C0010917A0004
:10076000E7B0F8B080917A0086FDFCCF80E00AC047
:10077000A82FB0E0AA0FBB1FA20FB31F11961C92A7
:100780001E928F5F9085891798F397B182A180950B
:10079000892387B998B182A18095892388B987E890
:1007A00080937A0070E029C0DF01A60FB11D519639
:1007B0008C915197806480937C0080917A00806452
:1007C00080937A0080917A0086FDFCCFA62FB0E05E
:1007D000AA0FBB1FA20FB31F409178005091790060
:1007E0008D919C911197840F951F11969C938E93D8
:1007F0006F5F80856817C0F27F5F81A1781710F462
:1008000060E0F7CF40E014C0C42FD0E0CC0FDD1F74
:10081000C20FD31F61A170E0CB0195958795A88188
:10082000B9818A0F9B1F0E942606798368834F5FD8
:100830008085481748F300937C0010937A00F8B83D
:10084000E7B8CDB7DEB7E6E00C94AE06A0E2B0E0C4
:10085000ECE2F4E00C9491068C017B01D42E842F01
:100860008150823018F4C8010E942902D8015096A4
:100870008C915097882389F4C801B7010E94BD026A
:10088000C8010E941402BD2DB230D9F5C801BE01C5
:100890006F5F7F4F0E94BD0210C0C801B7010E9468
:1008A000A403C8010E941402ED2DE23051F5C801E5
:1008B000BE016F5F7F4F0E94A40360E0AE014F5FF7
:1008C0005F4F1BC0862F90E0880F991FF701E80F3C
:1008D000F91F840F951FD8011E962D913C911F97EB
:1008E000DC018D919C911197281B390B808191819E
:1008F000820F931F918380836F5FF8018085681753
:1009000008F3A096E7E00C94AD069C01462F809179
:10091000100190911101B9010E94260408955058C8
:10092000BB27AA270ED0E5C0D6D030F0DBD020F010
:1009300031F49F3F11F41EF4CBC00EF4E095E7FBB9
:10094000C1C0E92FE7D080F3BA17620773078407A5
:10095000950718F071F49EF5FFC00EF4E0950B2E8C
:10096000BA2FA02D0B01B90190010C01CA01A00101
:100970001124FF27591B99F0593F50F4503E68F15C
:100980001A16F040A22F232F342F4427585FF3CF9D
:10099000469537952795A795F0405395C9F77EF46E
:1009A0001F16BA0B620B730B840BBAF09150A1F0B7
:1009B000FF0FBB1F661F771F881FC2F70EC0BA0F3D
:1009C000621F731F841F48F4879577956795B795C5
:1009D000F7959E3F08F0B3CF9395880F08F09927BD
:1009E000EE0F97958795089504D06894B111B5C01E
:1009F000089598D088F09F5790F0B92F9927B75154
:100A0000A0F0D1F0660F771F881F991F1AF0BA95D2
:100A1000C9F712C0B13081F09FD0B1E008959CC0F9
:100A2000672F782F8827B85F39F0B93FCCF38695C8
:100A300077956795B395D9F73EF490958095709525
:100A400061957F4F8F4F9F4F0895E89409C097FBA2
:100A50003EF490958095709561957F4F8F4F9F4F95
:100A60009923A9F0F92F96E9BB279395F6958795D9
:100A700077956795B795F111F8CFFAF4BB0F11F49C
:100A800060FF1BC06F5F7F4F8F4F9F4F16C0882343
:100A900011F096E911C0772321F09EE8872F762F79
:100AA00005C0662371F096E8862F70E060E02AF0BA
:100AB0009A95660F771F881FDAF7880F96958795A6
:100AC00097F9089597F99F6780E870E060E00895CE
:100AD0009FEF80EC089500240A9416161706180656
:100AE0000906089500240A94121613061406050632
:100AF0000895092E0394000C11F4882352F0BB0FC3
:100B000040F4BF2B11F460FF04C06F5F7F4F8F4F25
:100B10009F4F089557FD9058440F551F59F05F3F60
:100B200071F04795880F97FB991F61F09F3F79F00F
:100B300087950895121613061406551FF2CF469591
:100B4000F1DF08C0161617061806991FF1CF869513
:100B50007105610508940895E894BB2766277727F7
:100B6000CB0197F908950BD0C4CFB5DF28F0BADFD9
:100B700018F0952309F0A6CFABCF1124EECFCADF32
:100B8000A0F3959FD1F3950F50E0551F629FF001A0
:100B9000729FBB27F00DB11D639FAA27F00DB11DF9
:100BA000AA1F649F6627B00DA11D661F829F222782
:100BB000B00DA11D621F739FB00DA11D621F839F09
:100BC000A00D611D221F749F3327A00D611D231FDF
:100BD000849F600D211D822F762F6A2F11249F572D
:100BE00050408AF0E1F088234AF0EE0FFF1FBB1F50
:100BF000661F771F881F91505040A9F79E3F5105EF
:100C000070F060CFAACF5F3FECF3983EDCF386959F
:100C100077956795B795F795E7959F5FC1F7FE2B99
:100C2000880F911D9695879597F90895DB018F930D
:100C30009F930E947B06BF91AF91A29F800D911D53
:100C4000A39F900DB29F900D11240895AA1BBB1B6A
:100C500051E107C0AA1FBB1FA617B70710F0A61BBC
:100C6000B70B881F991F5A95A9F780959095BC01DD
:100C7000CD010895A1E21A2EAA1BBB1BFD010DC0D8
:100C8000AA1FBB1FEE1FFF1FA217B307E407F5073C
:100C900020F0A21BB30BE40BF50B661F771F881F18
:100CA000991F1A9469F760957095809590959B01AE
:100CB000AC01BD01CF010895052E97FB1EF40094F1
:100CC0000E94730657FD07D00E943A0607FC03D026
:100CD0004EF40C94730650954095309521953F4FF6
:100CE0004F4F5F4F089590958095709561957F4F18
:100CF0008F4F9F4F08950E94BD06A59F900DB49FF2
:100D0000900DA49F800D911D112408952F923F9264
:100D10004F925F926F927F928F929F92AF92BF920B
:100D2000CF92DF92EF92FF920F931F93CF93DF93B7
:100D3000CDB7DEB7CA1BDB0B0FB6F894DEBF0FBE14
:100D4000CDBF09942A88398848885F846E847D8461
:100D50008C849B84AA84B984C884DF80EE80FD8063
:100D60000C811B81AA81B981CE0FD11D0FB6F894D9
:100D7000DEBF0FBECDBFED010895A29FB001B39FAE
:100D8000C001A39F700D811D1124911DB29F700D94
:100D9000811D1124911D0895CF93DF938230910519
:100DA00010F482E090E0E0915401F091550120E0D0
:100DB00030E0A0E0B0E0309739F140815181481730
:100DC0005907B8F04817590771F482819381109739
:100DD00029F013969C938E9312972CC090935501F3
:100DE0008093540127C02115310531F04217530774
:100DF00018F0A901DB0101C0EF019A01BD01DF017B
:100E00000280F381E02DD7CF21153105F9F0281BA1
:100E1000390B2430310580F48A819B81611571057D
:100E200021F0FB019383828304C09093550180934A
:100E30005401FE01329644C0FE01E20FF31F81937C
:100E4000919322503109398328833AC0209152016D
:100E500030915301232B41F4209102013091030181
:100E600030935301209352012091000130910101F0
:100E70002115310541F42DB73EB740910401509141
:100E80000501241B350BE0915201F0915301E2174B
:100E9000F307A0F42E1B3F0B2817390778F0AC019D
:100EA0004E5F5F4F2417350748F04E0F5F1F50937A
:100EB0005301409352018193919302C0E0E0F0E02E
:100EC000CF01DF91CF910895CF93DF93009709F47D
:100ED00087C0FC01329713821282C0915401D091D5
:100EE0005501209781F420813181280F391F80918D
:100EF0005201909153018217930779F5F0935301B2
:100F0000E09352016DC0DE0120E030E0AE17BF0774
:100F100050F412964D915C9113979D014115510526
:100F200009F1DA01F3CFB383A28340815181840FA9
:100F3000951F8A179B0771F48D919C911197840FCF
:100F4000951F02969183808312968D919C911397A1
:100F5000938382832115310529F4F0935501E093A1
:100F600054013EC0D9011396FC93EE9312974D9114
:100F70005D91A40FB51FEA17FB0779F48081918179
:100F8000840F951F0296D90111969C938E938281AE
:100F9000938113969C938E931297E0E0F0E08A8100
:100FA0009B81009719F0FE01EC01F9CFCE0102966A
:100FB00028813981820F931F209152013091530172
:100FC0002817390769F4309729F4109255011092C7
:100FD000540102C013821282D0935301C093520174
:0A0FE000DF91CF910895F894FFCF40
:0E0FEA000000560120000A020407100F111229
:00000001FF
